:020000040800F2
:100000000080012025080008750800087508000810
:100010007508000875080008750800080000000051
:10002000000000000000000000000000750800084B
:10003000000000000000000075080008D10700085B
:10004000750800087508000875080008750800089C
:10005000750800087508000875080008750800088C
:10006000750800087508000875080008750800087C
:10007000750800087508000875080008750800086C
:10008000750800087508000875080008750800085C
:10009000750800087508000875080008750800084C
:1000A000750800087508000875080008750800083C
:1000B000750800087508000875080008750800082C
:1000C000750800087508000875080008750800081C
:1000D000750800087508000805080008750800087C
:1000E000E107000875080008750800087508000891
:1000F00075080008750800087508000875080008EC
:1001000075080008750800087508000875080008DB
:1001100075080008750800087508000875080008CB
:1001200075080008750800087508000875080008BB
:1001300075080008750800087508000875080008AB
:10014000750800087508000875080008750800089B
:10015000750800087508000875080008750800088B
:10016000750800087508000875080008750800087B
:1001700075080008750800087508000800000000F0
:0C018000750800087508000875080008E4
:10018C0010B5054C237833B9044B13B10448AFF3C5
:10019C0000800123237010BD04000020000000002B
:1001AC00F808000808B5034B1BB103490348AFF32B
:1001BC00008008BD0000000008000020F8080008BE
:1001CC0070B50D4D0D4C641BA4100026A64209D130
:1001DC000B4D0C4C00F08AFB641BA4100026A642AD
:1001EC0005D170BD55F8043B98470136EEE755F83C
:1001FC00043B98470136F2E7F8090008F8090008B3
:10020C00F8090008000A000870477047024B13B148
:10021C00024800F005B870470000000039020008E1
:10022C00002301461A46184600F014B838B5074D9D
:10023C00074C641BA4101CB9BDE8384000F05CBB33
:10024C00013C55F824309847F5E700BF000A000838
:10025C00040A00082DE9F047DFF874A00646DAF826
:10026C00000098460F469146FFF7CEFF164B1C68D0
:10027C000CB9164C1C606568DAF800001F2D05DD02
:10028C00FFF7C3FF4FF0FF30BDE8F0879EB104EBE2
:10029C0085010122C1F88890D4F88831AA40134313
:1002AC00C4F88831022EC1F8088102BFD4F88C3111
:1002BC001343C4F88C316B1C0235636044F8257011
:1002CC00FFF7A3FF0020DFE7240000202800002018
:1002DC0000000020074A936D43F400339365064BEE
:1002EC002322DA600C221A601A6842F001021A60AA
:1002FC00704700BF0010024000440040034BDB6914
:10030C0013F0800FFAD0014B986270470044004004
:10031C0010B5044602E00134FFF7F0FF2078002806
:10032C00F9D110BD10B5044602231A4606214FF030
:10033C00904000F099F900F0E5F90A4B63229A62BB
:10034C0049F64040B0FBF4F00138D86260229A6163
:10035C001A6A42F001021A621A6842F001021A602B
:10036C0010BD00BF00040040642800D96420054A79
:10037C00D36A9BB203FB0000034BA3FB0030400984
:10038C0050637047000400401F85EB5110B50024EA
:10039C000B4B1C700B4B1C604FF47A70FFF7C2FFB9
:1003AC003220FFF7E1FF05214FF0904000F08EF96D
:1003BC002046FFF7D9FF0448FFF7AAFF10BD00BF86
:1003CC00BC010020B80100201009000810B5124B28
:1003DC001B7893B9104B01221A7005214FF09040F5
:1003EC0000F06EF96420FFF7BFFF0C48FFF790FF99
:1003FC000B4B1A680B4B1A6010BD0024064B1C707B
:10040C0005214FF0904000F061F92046FFF7ACFF5A
:10041C000548FFF77DFFEBE7BC0100202C09000825
:10042C00C0010020B80100204009000810B5A0F15F
:10043C0031033E2B00F29F80DFE803F0429D9D9D2F
:10044C00559D9D9D689D9D9D9D9D9D9D9D9D9D9D4D
:10045C009D9D9D208E9D9D339D9D7B9D9D9D9D9DD8
:10046C009D9D9D9D9D9D9D9D9D9D9D9D9D9D9D9DB0
:10047C009D9D9D208E9D9D339D9D7B006420FFF74F
:10048C0073FF05214FF0904000F01AF93B4B01220D
:10049C001A703B4B1A683B4B1A603B48FFF738FF0E
:1004AC0010BD0020FFF760FF05214FF0904000F0D9
:1004BC000DF9324B00221A703448FFF729FFEFE791
:1004CC000A20FFF751FF05214FF0904000F0F8F89B
:1004DC002A4B01221A702A4B1A682A4B1A602C4894
:1004EC00FFF716FFDCE73220FFF73EFF05214FF048
:1004FC00904000F0E5F8214B01221A70204B1A684D
:10050C00204B1A602348FFF703FFC9E75A20FFF777
:10051C002BFF05214FF0904000F0D2F8174B012231
:10052C001A70174B1A68174B1A601B48FFF7F0FE2E
:10053C00B6E7124B01221A7005214FF0904000F0E3
:10054C00BFF86420FFF710FF1448FFF7E1FE0C4BD7
:10055C001A680C4B1A60A3E70024084B1C70052189
:10056C004FF0904000F0B2F82046FFF7FDFE0C482B
:10057C00FFF7CEFE94E7FFF7C1FE91E7BC01002028
:10058C00C0010020B80100205009000860090008D3
:10059C006C09000878090008840900089009000813
:1005AC00A00900080E4B1B78012B00D070470D4B97
:1005BC001B680D4A12689B1A40F6B7329342F5D964
:1005CC0010B50024064B1C7005214FF0904000F034
:1005DC007DF82046FFF7C8FE0448FFF799FE10BDD2
:1005EC00BC010020C0010020B8010020B0090008A7
:1005FC0010B504684FEA410E4FF0030C0CFA0EFCD8
:10060C0024EA0C040460046802FA0EF21443046039
:10061C00446801228A4024EA0204446044688B4006
:10062C001C434460836823EA0C03836083689DF851
:10063C00084004FA0EF423438360C36823EA0C03D6
:10064C00C360C3689DF80CC00CFA0EFC43EA0C03A3
:10065C00C360436923EA0203436143699DF8102098
:10066C008A401343436110BD10B504684FEA410E34
:10067C004FF0030C0CFA0EFC24EA0C040460046822
:10068C0002FA0EF21443046007290CD8026A89009E
:10069C000F248C4022EA04020262026A03FA01F17E
:1006AC000A43026210BD426A083989000F248C404B
:1006BC0022EA04024262426A8B4013434362F1E72E
:1006CC00436901228A401343436170474369012205
:1006DC008A4023EA0203436170470000044BDA6C42
:1006EC0042F00102DA64DA6C42F00402DA64704718
:1006FC0000100240024A136E43F001031366704768
:10070C0000100240024A936D43F002039365704758
:10071C00001002404FF0E02340F69F725A6107220E
:10072C001A61704730B585B0FFF7D8FF00240294EA
:10073C0001940125009523462A4605214FF090404F
:10074C00FFF756FF029401950095234622460D2192
:10075C000848FFF74DFFFFF7DDFFFFF7BBFD00F08B
:10076C0095F800F0B7F84FF47A70FFF7DBFD05B0A1
:10077C0030BD00BF0008004808B5FFF7D3FFFFF7F6
:10078C0005FE0D48FFF7C4FD0DE00C4B00221A705E
:10079C00FFF71CFE0BE00A4B187800221A70FFF7CB
:1007AC0045FEFFF7FFFE054B1B78002BEDD1044BEC
:1007BC001B78002BEFD1F4E7CC090008C501002011
:1007CC00C4010020024A136801331360704700BF54
:1007DC00C0010020064B5B6913F4005F07D0044A8C
:1007EC00536943F400535361024B01221A70704752
:1007FC0000040140C5010020054BDB6913F0200FFC
:10080C0004D0034B5B6ADBB2024A1370704700BF23
:10081C0000440040C40100200D488546AFF3008021
:10082C000C480D490D4A002302E0D458C45004333F
:10083C00C4188C42F9D30A4A0A4C002301E0136015
:10084C000432A242FBD3FFF7BBFCFFF795FFFEE798
:10085C00008001200000002004000020040A000891
:10086C0004000020C8010020FEE700004FEA501CE5
:10087C00054951F82C3000F01F000122824013432F
:10088C0041F82C30704700BF00E100E008B5FFF7DD
:10089C0031FF0F4B5A6922F0F0025A615A6942F04B
:1008AC0020025A6103F580631A6842F400521A6000
:1008BC00DA6842F40052DA609A6822F400529A60C4
:1008CC004FF400525A612820FFF7D0FF08BD00BF3B
:1008DC000000014008B5044A136843F0200313607C
:1008EC002620FFF7C3FF08BD00440040F8B500BF49
:1008FC00F8BC08BC9E467047F8B500BFF8BC08BCF5
:04090C009E4670474C
:10091000526F6F6D20436F6E74726F6C20696E69D9
:100920006369616C697A61646F0D0A004573746173
:10093000646F3A204F434355504945440D0A000027
:1009400045737461646F3A2049444C450D0A0000B8
:1009500050574D203D20313030250D0A0000000059
:1009600050574D203D2030250D0A000050574D2096
:100970003D203130250D0A0050574D203D203530A7
:10098000250D0A0050574D203D203930250D0A0015
:1009900053616C61206F6375706164610D0A0000C2
:1009A00053616C6120766163C3AD610D0A00000084
:1009B00054696D656F7574202D3E204573746164B4
:1009C0006F3A2049444C450D0A0000005369737486
:1009D000656D6120646520436F6E74726F6C206476
:1009E000652053616C6120496E696369616C697A45
:0809F00061646F210D0A000093
:0809F80019020008B10100081A
:040A00008D0100085C
:040A040020000020AE
:0400000508000825C2
:00000001FF
